:400000000040002011000000BD040000BD04000010B500F05BFAC04670B512222B4B1A6000F076FE2A4801F0CFF8012000F090FE302000F099FD274A274B1A60274C8025FC
:40004000ED052560264A116802230B431360254A254B1A600022254B1A60254A136808218B431360FA20C00000F01EFE214800F011FECE22D201204B1A60204B204A1A603C
:400080002049214A1160214A1A60A0214901204A1160204A1A60822212061F4B1A608022D2021E4B1A6041221D4B1A6001321D4B1A60023A1C4B1A601C49082000F09AFDC8
:4000C000082000F08BFD256070BDC04630001040001BB7000600008004010B400C020B4078002E402D3E00007C002E4064F02E406CF02E40DC0500000403014000000140F6
:4001000041FF0080007FBB000803014042FF00800003014040FF008008010B4000010B402C0101401C01014018010140690E000070B572B600223F4B1A6000240FE03E486C
:400140006200131959000B00411889881A5AC31858880004104300F073F90134E4B2022CEDD9002411E0344EA2001319590071188D8AC88A000428430A8B498B0904114399
:40018000802200F063F90134E4B2002CEBD02A4920312A48443000F039F980225200284B1A800121274B1970EE221206264B1A60264A274B1A60C0229204264B1A60992327
:4001C0001B04254A13602548254A106080208004244A10602448254A1060254A136080225205244B1A60244803783C22934314221343DBB20370214A107816230343DBB2FB
:400200001370D82212041E4B1A6021221D4B1A60C42292021C4B1A601C4B196040221C4B1A60C02252031B4B1A60FFF7F5FE00F021F970BD6CF02E405C2D01005C2F01008E
:4002400000600F4002600F400000024007003000000102400002024000500F400400990010500F4014500F400000035118500F4020500F4028500F4001700F4000700F4070
:4002800008000440000104400801044018010440000204400802044010B5064C2378002B07D1054B002B02D0044800E000BF0123237010BDA810002000000000582D0100A0
:4002C000084B10B5002B03D00749084800E000BF07480368002B00D110BD064B002BFBD09847F9E700000000AC100020582D0100A00B00200000000010B5CCB00C00282856
:4003000003D04E2805D0012844D1002000F09EF940E08B89122B14D14B681B78612B03D1002000F0BFFB0CE0622B04D1FA20400000F0B8FB05E0632B03D1FA20800000F0D8
:40034000B1FBA389182B0AD162681278652A03D16521114A116002E000210F4A11601B2B18D196225200002101A801F01BFA002304E06268D15C01AAD15401332289934226
:40038000F7DB01A800F0FEFE0A2000F0EFFE0D2000F0ECFE4CB010BDC410002010B584B062B600F0D3FE00F04BFE00F059FE00F0CBFB134800F0F2F801F030FA022000F0A1
:4003C00059FE104B1B68652BF6D1002000F066FE0F236B441870142269460A81009301238B80094C00232200002168460EF0ECF8237860780002184369460CF099FEDBE743
:40040000F9020000C410002070220020F0B50025002711E0BB00C658F3B2FF22964308E06A008A181478A419527822700135013BDBB2002BF4D10137082FEBD9F0BDC04653
:4004400010B50A00002101F0ADF910BD10B501F0A0F910BD064B1B68002803D080221206134301E05B005B08014A13607047C04680033A4010B530220A4B1A6003230A4AB6
:4004800013600A4A136080221206094B1A6080221203084B1A600022074B1A600120FFF7D9FF10BD08210240300030403000314000003A4000033A40000E3F4010B501F066
:4004C0002DF903680C2B00D1FEE7FEE770B50F4E0F4D13E029686B68AC68002202E001C901C30432A242FAD1E868002202E0002102C304328242FAD11035013E002EE9D16E
:4005000001F012F9FFF74AFFFEE7C04601000000E432010010B50E4A136801218B43136000230AE0032B03D89A000A49505800E009489900094A885001332F2BF2D9FFF793
:40054000F7FD034A116801230B43136010BDC0460000104000000000BD0400000000002010B500F08DFA10BD10B50024064B1C70064B1C70064B1C70FFF7F2FF054B1C708C
:40058000054B1C7010BDC046872200208522002086220020742200207C22002010B590B00400142220490BA801F0F3F820231F4AD35C002B05D1FFF7D7FF012120231B4A17
:4005C000D154002C2DD01A4B1C6008A805AA426006AB0893002101811B311980598017391971002313701231694401F0F3F9002818D1104B0293104B0193052300930BAB70
:40060000AE2212010D490E4801F03AF9002809D101220C4B1A700E321C210B480DF0BCFF00E0012010B010BD44300100C81000207822002079020000803B0100C0000020AD
:40064000A9070000842200205830010010B502282FD81C4B1B78042B2DD11B4B1B785B072CD4002809D1194B1E221A860232596A0A805B6A10325A800CE001280AD1134B0D
:4006800096221A86C822D200596A0A805B6A8022D2015A800E4B18700C4820300BF0B6FB00280DD1084A117804230B43DBB2137006E0012004E00420FF3001E00420FF30BC
:4006C00010BDC0468422002087220020A40B0020862200207047C04603784078000218437047C04670B5050083890F2B1FD1043031332A0000210DF067FF041E11D168687D
:40070000FFF7EAFF830706D50A4B1B68290082204000984705E0074B1B6829000620FF309847054A137801218B43137000E00024200070BD7822002087220020024B00220C
:400740005A701A707047C0467022002010B582B00400FFF7C7FF0A4B1B78DB070ED4002809D001A912238B70A3890B80C87020680CF0A0FC02E020680CF01EFD02B010BD69
:40078000872200208379002B07D000200BE0C25C002A07D10133DBB200E00023052BF6D9002000E001207047F0B583B004000D00A04A117801230B43DBB21370272800D1AE
:4007C000C2E012D8062800D185E004D8012821D005287CD01CE1242800D1B1E0262800D1BAE0212800D013E189E0422800D1FBE006D8282800D1ABE0412800D1E0E007E13E
:400800004C2800D1FBE0FA2800D1FCE0432800D0FEE0ECE001AE0727377000237370300002F0E8FF377001237370300002F0E2FF00F0ECFF804B1E683000FFF7A3FF002884
:400840000CD0300000F0EEFF7B4E00213068FFF741FF30680121FFF73DFF2AE0774B1F78774B18788001FC263601020032403F2139401143734B1B781B03F822520213408B
:400880001943714B1B785B04FE22120413400B436E4E33701A0A72701B0CB370300000F0C1FF00213000FFF715FF01213000FFF711FF00200BF04EF901A83F230370002312
:4008C00043700BF065F90422614B1A70A0E02A78604B1A709CE02B78002B00D098E06B78002B06D15C4B0022DA809A805B4A1A606B60504A137801218B43137088E04D4B03
:400900001B789B0600D583E0554B1B78102B02D10522534BDA70534B187851490BF038FA01AB1880002804D04F4B1B6801A936209847404A117801230B43DBB2137067E0EE
:400940006A784A4B1A7063E00222414B1A705FE004223F4B1A705BE03D4B1B78022B57D0344A1278D20753D5324A1278520708D50322374B1A702F4A137804218B431370E6
:4009800046E02C4A1278120708D50422304B1A70284A137808218B43137039E0032B37D104222B4B1A70324B1B78002B30D10120FFF74CFE00282BD10322254B1A7027E01D
:4009C000284E02222900300000F0E3FE0022214B1A7031789E318900264B591801310432254800F0D6FE13E0FFF7A8FE10E06988162900D9172128880CF066FB08E02800C2
:400A0000FFF7A4FE04E01D4A117801230B431370084B1A7811231A4209D0064A137801218B431370104B1B6829002000984703B0F0BDC04687220020D80B00207CF1FF0F06
:400A40007DF1FF0F7BF1FF0F78F1FF0FDC0B00208422002085220020EC100020A00B0020C40C002070220020782200207C22002086220020803B0100802200207422002078
:400A80007047C0460004000C014B18607047C046080120400004000C014B18607047C046140120400004000C014B18607047C0460C01204070B504000D0000F08EFBAC40E0
:400AC000024B1C6000F08DFB70BDC0460800204010B500F082FB064A116801230B43136000F07FFB18210120FFF7E4FF10BDC04600002040014B18607047C0463801204050
:400B000010B50E4C8023DB042360236823600020FFF7B8FF236823600C22094B1A600120FFF7E8FF3122074B1A60FA208000FFF7B1FF0020FFF7B6FF10BDC0460001204050
:400B4000240120402801204010B5064B1B78002B04D1FFF7D5FF0122024B1A70FFF7B8FF10BDC046F410002010B586B0040000F034FB0E4B1B6800930D4B1B680193033C1B
:400B80000C4B1B5D02930C4B1B68039304AA0B4B04936B4605930A4B1A600A490A4A11601B6800F01EFB06B010BDC04608010B4000010B409032010030001040B6EA0000FE
:400BC000080010401700008004001040024B1B68012018407047C0460C002E401F2318401E3B8340014A13607047C04600E100E001BE704770B504000D001F2802D9002052
:400C0000FFF7F6FF1034A40080239B059C4664442068256070BDC04670B504000E00032902D90020FFF7E4FF1F2C02D90020FFF7DFFF03252540ED00063500F0CEFAA4086A
:400C4000A400074B9C46644421680323AB4099430B003100A9401943216000F0C2FA70BD00E400E010B5040006E0084B586800F0ABFA074B9C46644480231B029C42F4D842
:400C8000024B9868604300F09FFA10BDCC0C00200080FFFF10B5034B1B7B584300F094FA10BDC046CC0C002010B504000F4A116801230B4313600E4A0E4B1A600E4A13686D
:400CC000802109020B431360002809D100200CE00120FFF7DFFFFFF779FF002804D1013C002CF5D1102000E0002010BD60F02E400220000078002E4010002E40034B1868DB
:400D0000C0231B02184000D00120704700010B4010B50D4B1A6801218A431A601A68022082431A60094A10683024A043203C204310601068093CA043014311601A688021D3
:400D400009060A431A6010BD00F02E4000FF2E4070B51D4B1B6801241C40002802D0012816D02BE0184B19680122914319601968022081431960154B19682E3081432038D1
:400D8000014319601968093881430A431A6018E00D4B1A6802218A431A600C4A10680725A84301431160116830208143103801431160196801220A431A6002E00020FFF766
:400DC00017FF200070BDC04600F02E4000FF2E4010B500F002FA044A1368C02109020B43136000F0FEF910BD00010B4010B500F0F4F908490A68084B1A408024E401224398
:400E00000A600A6813408022120213430B6000F0E8F910BD00010B40FF3FFFFF70B5050000F0DBF90400FFF769FF002803D0FFF7DDFF012100E0002108482840084A15681F
:400E4000084B2B40184310601368012901D1FFF7BFFF200000F0C5F970BDC0460404040010020B40FBFBFBFF10B5244B1B685B0715D5234B5B685B070ED5224B596A042097
:400E800001401F4C62688A4362605A6A82435A629B69002B00D098470420FFF7BFFF174B1B685B0518D5164B5B685B0510D5154B596A8022D2001140114842688A4342603D
:400EC000596A114A0A405A62DB69002B00D098478020C000FFF7A2FF084B1B685B030CD5074B5B685B0304D5064B1B6A002B00D098478020C002FFF791FF10BD10020B4096
:400F0000E00C0020F8100020FFFBFFFF10B503210F20FFF781FE26490F20FFF76BFE0122244B1A60244B1B68002B01DA234900E02349244A13680B431360234A234B1A6040
:400F4000234A244B1A600023234A1360234A24490A6024490A6024490A688020400202430A60224A1360224A13600122214B1A60214A1168214B0B40802189050B4313603B
:400F800002221F4B1A6000230EE09A001D495118802080000860580000241B494452C22040001A4950500133002BEED010BDC046C910000020003A4080033A407002105159
:400FC0007002005100003A408C00008004003A400000FF0718003A401C003A400400040010003A4014003A4000033A4028023A4038023A4018023A4030003A40FEFFFFDFEE
:40100000040F3A4080003A40882200208C22002010B5094B1B68002B0CDB084B1B68002BFBDB054A1368802109060B4313600A20FFF730FE10BDC04600003A4008023A40B2
:4010400010B5064B1B78002B04D1FFF75FFF0122024B1A70FFF7DCFF10BDC04620110020034A1368802149020B4313607047C04604003A40020083070CD0074B1B68012076
:40108000184001D19307F8D4002804D00122024B1A6000E00020704710023A4010B5041E02D00020FFF7A4FD002C07D1A400054B9C46644420680004000C00E0002000B23B
:4010C00010BDC04680013A40014B1A681A60704710023A407222074B1A70523A064B1A701A3A064B1A704132054B1A700022054B1A70704781000F4080000F4023000F4080
:4011000033000F4082000F4010B500F066F804000B4A117820230B43DBB2137009490A7810231A43D2B20A70074A11780B43DBB21370FF2000F03AF8200000F052F810BDC4
:4011400091000F4090000F4092000F4010B5064B1B78002B04D1FFF7BDFF0122024B1A70FFF7D2FF10BDC04621110020034B1B785B07FBD4024B18707047C04662000F4039
:4011800042000F4070B50500074B1B78002B05D108E0FFF7EBFF0134A4B200E00024285D0028F6D170BDC04621110020044B1B68002BFBDB0002034B1843014B1860704745
:4011C00000000140410000800230800803D00138FDD1C046C046C0467047EFF3108072B6704780F3108870470160704701607047324B1A781202324B1B781A43314B1B78AE
:401200001B02314909780B4330498B4201D1072A06D0D42109018B4206D1042A04D102E02B4B042200E02A4B2A490B602A4B1A602A4B1B781B022A4A127813438022920135
:40124000934202D0002B02D002E0264B00E0254B254A1360254B1B781B02254A12781343244A934205D0244A934204D0052B05D103E0224B02E0214B00E0204B204A1360DB
:40128000204B1B681B09204A1268AA2A15D1012B13D9164B1B780E2B0FD11C4B1B781B021B4A127813431B4A13601B4B1B781B021A4A127813431A4A13607047D9F0FF0F66
:4012C000D8F0FF0FDFF0FF0FDEF0FF0F580B0000580D00006C002E4074002E40DBF0FF0FDAF0FF0F0220000078002E40DDF0FF0FDCF0FF0F0F0F000005050000050F000031
:4013000080002E40EC0F00F0E00F00F06DF2FF0F6CF2FF0F84002E406FF2FF0F6EF2FF0F94002E4010B5FFF7B5FC10BD10B5FFF799FC10BD10B500F04BF810BD10B500F07B
:401340004FF810BD10B500F04BF8034800F02AF8032000F02DF810BD2914000010B5024800F046F810BDC046291400000220FF307047C0462B2070472B2070472B20704761
:401380002B2070472B2070472B2070472B2070472B2070472B2070472B2070472B2070477047C046014B18677047C0460000002010B50400FFF711FF044A1368C0218B4371
:4013C000A4011C431460FFF70CFF10BD0CE400E080225201014B1A607047C04600E100E080225201014B1A607047C04680E100E010B50400FFF7F4FF2000FFF7D3FF032028
:40140000FFF7D6FFFFF7E4FF10BDC04610B5FFF7E4FE044A136804218B43136030BFFFF7E0FE10BD10ED00E010B511F081FC10BD002243088B4274D303098B425FD3030A53
:401440008B4244D3030B8B4228D3030C8B420DD3FF22090212BA030C8B4202D31212090265D0030B8B4219D300E0090AC30B8B4201D3CB03C01A5241830B8B4201D38B03C8
:40148000C01A5241430B8B4201D34B03C01A5241030B8B4201D30B03C01A5241C30A8B4201D3CB02C01A5241830A8B4201D38B02C01A5241430A8B4201D34B02C01A524173
:4014C000030A8B4201D30B02C01A5241CDD2C3098B4201D3CB01C01A524183098B4201D38B01C01A524143098B4201D34B01C01A524103098B4201D30B01C01A5241C308C2
:401500008B4201D3CB00C01A524183088B4201D38B00C01A524143088B4201D34B00C01A5241411A00D20146524110467047FFE701B5002000F0F0F802BDC0460029F7D0AD
:4015400076E7704703460B437FD4002243088B4274D303098B425FD3030A8B4244D3030B8B4228D3030C8B420DD3FF22090212BA030C8B4202D31212090265D0030B8B4276
:4015800019D300E0090AC30B8B4201D3CB03C01A5241830B8B4201D38B03C01A5241430B8B4201D34B03C01A5241030B8B4201D30B03C01A5241C30A8B4201D3CB02C01A8F
:4015C0005241830A8B4201D38B02C01A5241430A8B4201D34B02C01A5241030A8B4201D30B02C01A5241CDD2C3098B4201D3CB01C01A524183098B4201D38B01C01A5241F5
:4016000043098B4201D34B01C01A524103098B4201D30B01C01A5241C3088B4201D3CB00C01A524183088B4201D38B00C01A524143088B4201D34B00C01A5241411A00D245
:4016400001465241104670475DE0CA0F00D04942031000D34042534000229C4603098B422DD3030A8B4212D3FC22890112BA030A8B420CD3890192118B4208D3890192114C
:401680008B4204D389013AD0921100E08909C3098B4201D3CB01C01A524183098B4201D38B01C01A524143098B4201D34B01C01A524103098B4201D30B01C01A5241C3087A
:4016C0008B4201D3CB00C01A524183088B4201D38B00C01A5241D9D243088B4201D34B00C01A5241411A00D20146634652415B10104601D34042002B00D5494270476346EC
:401700005B1000D3404201B5002000F005F802BD0029F8D016E770477047C046014B18687047C046A01000200E4B70B500251E000D4CE41AA410A54204D0AB00F358984750
:401740000135F8E711F0BCFD084B00251E00084CE41AA410A54204D0AB00F35898470135F8E770BDCC320100CC320100CC320100D432010030B50024A24208D0035D651C82
:401780000C5DA34201D0181B02E02C00F4E7002030BD002310B59A4203D0CC5CC4540133F9E710BD03008218934202D019700133FAE77047134A1088810703D08107890F20
:4017C000401A001D11791030484381B25088820703D08207920F801A001D800040180A494030098980B2CA0701D0503080B2890706D504495422091F09785143081880B265
:4018000070470000EE0C00203011002010B501F011FF10BD10B501F013FF10BD10B500F05BFA10BD10B50749044609780220002907D1204601F054FF002802D120460AF06F
:401840008DFA10BD8C0E002070B504460120002C12D02368002B0FD0616800290CD0074D06222889208118462968FFF792FF6968606809780170002070BD000030110020DC
:40188000FFB585B0002768460E9D07734F481C460078002802D0082009B0F0BD10990F9801900095029105A807C800F007F90028F2D16946264603AB84460873002C19D0C9
:4018C000002115E08A00B75A082F09D990198078002805D0083FB7521878401C187005E0002914D00027B75290198770491CC9B2A942E7D360460028CED10F98002809D060
:40190000109901F047FA002804D00120C4E701208446EFE701F094FE2D480021416081600599016021888180022D07D3A1798171A17AC171A1890181218A418100211EE065
:40194000481C19E082008B00A75AE65ABE46BE4211D26F463E80B4461E190296B678BE7001967646E6521719029EBB78B3706646A652019EBE70401CA842E3D3491CA942CF
:40198000DED3134822460C3000906846037B0799069800F01BF90028B8D168460B4C007B60700B480C3001F07BFE0028AED1084907480C3107F0A2FA0028A7D107F0BCFA1B
:4019C0000028A3D10121217066E70000E80C002024110020F8B5054636480F460078002802D002242046F8BD002F60D000243249002D16D02A89D0070DD02868002808D05C
:401A000003881B3BE12B04D24088FB2801D81B2801D2012409E0900707D56868002804D1F7E70020088108604860002CDAD122482E8906811F481B21801D018041800421FE
:401A400001711C490020891C0870F00705D019480622801D2968FFF79CFE1749B00703D56A68144812788270124D0E46AD1D281F0D60486001F05AFE284601F049FE308925
:401A80000DF0B2FE30890DF09BF828880DF09EF830890EF013F803461033FFF78BFE1F21C018890140183880A91F88809AE7012498E70000E80C002030110020FFB5844686
:401AC000384F1C460020BB883F78054602460646002F11D100290ED0029999420BD36146002908D0002C06D00A99002906D02E4B0B99994202D2012004B0F0BD002144E0B9
:401B0000AB001F19BF78002F3BD0E35A002B38D07B43591889B22B0000F04AF8050410161C253100A7782388BC46FF27233BEB37BB4222D26346032B1FD322E0A388002BF5
:401B40001FD0302B19D31CE02389002B19D0282B13D316E0A289002A13D01346134F233BBB420AD20DE0268A002A0AD033460F4F233BBB4201D2964203D901200EE0002091
:401B800001E000280AD16D1CEDB2099B9D42B7D31C2463435B1802998B42ACD89642AAD8AAE70000E80C002079020000BAFF000030B47446641E2578641CAB4200D21D4635
:401BC000635D5B00E31830BC18470000FFB583B0002469460C801F4606468C80002806D00598002803D004983043800701D0012466E0002FFBD03449049809888842F6D3E2
:401C0000FFF7ACFBFFF79AFB00F016FC002855D100F07EFD002851D12C49084601F0EEF805042D0C4AD12A480499066081800021C18007810C98007AC00704D0684601F0C8
:401C400018FD040007D10C98007A800703D501A801F018FD0446BF1DFEB2002C20D13146059800F05DF804001AD10DF035FF040016D16A461088928808368518144AF1B2B2
:401C80009088D288AEB29319984207D3401B801A80B201F0A3FB050007D000E0FF25012400F062FA002D04D008E0F8B200F01CF9F6E700F085FA07490120087000F0CEFB65
:401CC000204607B0F0BD0000EC0C00200D1E00003C110020F40C002010B503480078012801D101F01DFA10BDF40C002070B5084B0446DA889E8803205518B54206D81868A3
:401D000080182060D8884018D880002070BD00003C11002001480089704700003C110020F0B587B007460D4600208900009006916846FFF7DBFF844600285DD130480099D0
:401D40000160002117E02E4B88001A680629115406D22C4C0419667882185670628805E0C419203CA67A8218567022891B68C018491C4280C9B2A942E5D300242DE0601CA8
:401D8000C2B2059025E01E4FA30039689600581840887118039604904E88B04217D938466F46FE80B6464F786E4677710297049F4F800168039F5E18767879184E700168E6
:401DC000764659184E800068029F18184770521CD2B2AA42D7D30598C4B2AC42CFD36046002809D168460699FFF780FF8446002802D1054900980860604607B0F0BD000046
:401E0000F80C0020F8320100FC0C00207047000010B5002809D005494A68002A05D0011F08788000105801F087FA10BDF80C002010B50446FFF76EFFC0B2801DA0420CD382
:401E400007484068002808D0A100405801F0E6F9002801D00470001D10BD002010BD0000F80C0020F8B516460D460446FFF752FFC0B2801DA04203D20020C0430090F8BDDF
:401E8000B2B2E9B2684601F0EFF90099481C03D0024AA000526811500098F8BDF80C0020F8B50746FFF736FF801DC6B20A49002005460C680DE06178002907D06188B9423E
:401EC00002D32078FFF7B4FF002804D1241D6D1CEDB2B542EFD3F8BDF80C002010B5002801D0FFF795FF10BD70B506460948002504680BE06178002905D062882078121DF9
:401F00000023FFF7AFFF241D6D1CEDB2B542F1D370BD0000F80C0020FFB581B00A9F16000C4620D000F0F6F8054604281BD0002F0CD03846FFF7B4FF20492A015118486068
:401F4000002810D03A460499FFF723FC1B4928010E504618778101980570200406D47D20C000444304E0FF2005B0F0BD6404640C00F0BEF80746042807D000F053FAA042A4
:401F80000BD800F04FFA201A03E0204600F0AEFA0020F06035720020E6E700F043FA009000F0BAFA00980121001B009000F0F0F802493A0151180098C860E6E74811002053
:401FC000F8B5042801D3FF20F8BD060116483418217A042903D0E068002802D017E00020F8BD00F01FFA054600F096FA00F0A0F804280CD001010C480F18F8680021451946
:4020000000F0C6F80020F860284600F06FFA6068054D002801D0FFF761FF042020720020A8516081E060DAE748110020FEB500266A46304601232549050169180D7A042D50
:4020400002D0C96800291BD000211154401CC0B20428F0D300246846005D002830D01B48210108184189476805680291002101604160042241810272C160002E02D015E0FC
:402080001354E3E700F054F804280ED001010F4808180190C6680021304600F079F801980021C160304600F021FA0126002D07D038460299A847002F02D03846FFF70EFF68
:4020C000641CE4B2042CC6D3FEBD0000481100200EB5002005216A460090118150810348694600680EF07FFB0EBD0000000D0020074A0020010189180B7A042B02D0C96884
:40210000002903D0401CC0B20428F3D370470000481100200549002002015218127A042A03D0401CC0B20428F6D370474811002030B50A4B04200A4C00210A011219157ABE
:40214000042D06D0D268002A03D09A4201D808461346491CC9B20429EFD330BDFFFF0000481100207047000030B50020074C05460423020111190B72A5504D60401C4D819B
:40218000C0B2CD600428F4D330BD00004811002030B5094C00231A011219157A042D04D0D568002906D02D18D5605B1CDBB2042BF1D330BD2D1AF7E74811002000207047E1
:4021C0001CB5002469460C70142001902346054A05480EF00DFB04480068401C00D1FF2420461CBD3D220000000D00203EB5124A0146FF2000230124126800290DD0012979
:4022000014D0042908D104206946009308814B8110460EF0E8FA80B23EBD6846009304814381694610460EF0D9FAF4E768460093048143816946EBE7000D002070B5458930
:402240000468416800890300FFF7B2FC08280509091E22282628002005F000FD1EE0022908D0C8B22A4621460CF0FEFB2046FFF735FE13E002202A4621460CF0F5FB2946ED
:40228000204600F00DF809E000200DF0ABFF05E02046FFF7CBFE01E0FFF782F8002070BD014B0022DB681847040D002070B5448905680089022803D0032809D0FF2070BDF5
:4022C0002246094C0023A46829460120A04708E0FFF7A0FA241DA2B200232946022006F0C0FC002070BD0000040D002070470000024800214160018041807047040D00209D
:4023000070B50C46002186B016460391012802D0022859D116E003A9012006F0F7FC01281BD1039D324621462846FFF732FA0095287801900220694608814E816846FFF72D
:40234000B5FF41E0214D002B686809D0049004A9022006F0DBFC01281DD0022006B070BD002812D0298840182146FFF712FA28880024801980B228806988091D884206D180
:402380002C801348FFF792FF03E00320E6E788421AD96C6018E004986860E278A378110219430B4A698000231060E3565360032313815181A1788170E178C170617841708C
:4023C00021780170042028800020C7E7040D0020881100203EB515460C46022803D004280CD000203EBD0091019002206946088107484A8100680EF0F6F907E00CF034FB92
:40240000044B0022DB6829462046984701203EBD000D0020040D0020014AD16090607047040D0020034801688068081A0A214843000970479411002010B5FEF783FF4C22C3
:4024400004490548FFF7A5F903490120C870002010BD0000143301009815002010B5FEF769FF10BD70B5134C2368002B08D0207B1149C20705D04008400020738868A080C8
:4024800070BD88680B4AA18880B29268814203D90A4D691A091802E0814202D2411A5118A160A080A0689842EAD30EF0B9F900F013F870BD94110020C0102E40FFFF0000E5
:4024C00010B508461946FFF7A7FF10BD704710B5FFF780FF10BD000003480021016041608160C1607047000094110020024610B5FF20002A0CD0FFF7EFFF064C0321207B30
:402500000843207310010A21FFF718F82060002010BD00009411002000B504480A21806848430209FFF7D8FF104600BD941100200248007B8007C00F704700009411002063
:4025400010B54B490868002802DA4A4B01221A70022290430860484800694549C00B4031096A0246C907C90F0A4259D0012000F097FA3F480E216C30FEF738FE3E4820216C
:402580008430FEF733FE3C4814219C30FEF72EFE3948FF21C131A430FEF728FE3648FF212F31B030FEF722FE33483449BC30FEF71DFE31483249AC30FEF718FE30492E4868
:4025C000491CB430FEF712FE2B482E49B830FEF70DFE29482C49CC30FEF708FE26482B490830FEF703FE24482949A830FEF7FEFD214828498830FEF7F9FD1F4826498C3019
:40260000FEF7F4FD1C481921C9029030FEF7EEFDFEF7EEFDFEF7AAFEC0B2022812D01FE000290BD0002101420AD0114801216030FEF7DCFD0120FEF779FE97E70121F2E790
:40264000FF2010BD15491648FEF7D0FD14481549001DFEF7CBFD124800210830FEF7C6FD54200449C043891C0870002010BD000000F02E40140D002000002E4032030000E1
:402680002F3F00003102000010520000EC160000FA12000031D000003AE300009956000080012E40F80F000070B50646581C80B245086D00002408E0304600F0C1F81055A5
:4026C000000A1119A41C4870A4B2AC42F4D3D80705D0D0182038D15CC47FD454C17770BD30B50A4C002100195B1E07E0541864782502545C2C430480891C89B29942F5DBC0
:40270000994201D1515C018030BD000000102E4010B5FF2000F0C4F90F49FF2048700E481021801D41800121417001700A490020C91C4870FFF704FF04000AD100F010F989
:4027400007210648FEF750FD044807211830FEF74BFD204610BD0000140D0020CC112E4070B5002405465B1E0AE0284600F068F8010A161971702D1D1055A41CADB2A4B2F5
:402780009C42F2DB9C4203D1284600F059F8105570BD000070B500210A4D5B1E0AE0541864782602545C344346193480001D891C80B289B29942F2DB994202D1515C401946
:4027C000018070BD00102E40F0B50599091FCFB200217E1E0BE0541864782502545C2C43164D45192C80001D891C80B289B2B142F1DBFC0712D01C78515C24020F4A0C433C
:4028000081180C809C785D78001D210280B2294384182180001D80B2D9780CE059781A7809021143054A84182180001DD9789B78090280B2194380180180F0BD00102E4037
:40284000014940180088704700102E4010B50B490020487000F084F8002000F047F9002000F034F907210648FEF7BEFC044807211830FEF7B9FC002010BD0000170D002053
:40288000CC112E4010B50B46062812D006DC01280CD0032801D1FFF7D9FF10BD0A28FCD00B28FAD105480078107010BDFFF730FF10BD1146184600F035F910BD1A0D002041
:4028C000F8B5244DAC6A0127A007234E002816DA307806280ED1286A384328621F480069F903084381B21D481030FEF77FFC042000F0D6F8174802212830FEF775FCE00798
:4029000018D000F01FFF01280FD1002000F06CFF062000F0C5F81049FF20C91E48707078002802D1686B384368630A4801212830FEF75AFCE0050BD53078042802D105208F
:4029400000F0AEF80348FF2101312830FEF74CFCF8BD000040F02E40170D002000002E4010B503212348FEF741FC0120FEF7DAFC20483038406A204C80076178800F8900BA
:4029800001431C480C38FEF731FC6078002808D0401E022181401820FEF7BAFEC000083800E0B82081B21548FEF720FC1348032109021438FEF71AFC10481149B830FEF741
:4029C00015FC612189010F48FEF710FC0D480321001FFEF70BFC0C490C48FEF707FC0B480B496038FEF702FC084801218838FEF7FDFB10BD70F02E401A0D0020D8102E40A4
:402A000090890000041E2E40FF0F000058122E40209000000848017806290BD140780749002803D1486B400840004863C86A01221043C86270470000170D002040F02E402E
:402A40000148007870470000170D002000B50300FFF7AEF8080D050D0B070507090D012000BD032000BD042000BD022000BDFF2000BD0000074A9168D26889B2064B92B23D
:402A8000994204D105498A4201D1012100E000210170704780002E4033D000003FE3000010B50446FEF74AFC072C01D9FF2C01D102480470FEF73EFC10BD0000170D0020CA
:402AC0000149487070470000140D002010B5064A012805D01921C9021046FEF787FB10BD1D21C902F8E7000090002E4010B50A4A141D012808D009491046FEF777FB084999
:402B00002046FEF773FB10BD04491046891CFEF76DFB0349491DF3E788002E4031D000003AE3000070B50C460546FEF71FFCC0B202280E49287804D0FF2810D04C280CD822
:402B400010E0FF2809D10A4AD0680004800F032801D0087807E09069000A553803E00878207070BD4F382070087070BD160D002000002E40F0B50122002834D0002932D0A6
:402B80000424420600D00524792342065B06D21800D0641C034600221EE00C2516466E43124D00277519AF72104F002ABB51696007D0661EB24209D10D4E86197606760ED0
:402BC00005E05E06760E8027BE1B00E080269B198919521C2E81D2B2A242DED303480549006B002288611046F0BD00002014002079020000200D002018B500206946087034
:402C00000A48006900280ED0132149014018047E684604704F21C900054800F05BF8A04201D0012018BD002018BD0000200D0020A4110020074900200C2242435218927A37
:402C4000012A05D0401CC0B20628F5D3002070470120704720140020F8B50F000446164609D01A4D1A496868A04202D94018A04201D38E4201D90120F8BD39462046FEF793
:402C800079FD002820D0324639462046FEF781FD0E49F0B2012620318E7600210C220B4653430A4A9A1813895568EF18A74207D9641B1B1B9672834206DAC01A1469C0B2B1
:402CC000491CC9B20629E9D30020F8BD2014002079020000034610B50020024604E09C5C2018521CC0B292B28A42F8D310BD000070B500F05FF8084C064A216907480D4617
:402D0000FEF747FD05492846FFF734FFFFF774FF207070BD79020000200D0020A4110020002070470020054A002902D0012902D002E0906000E0D06000207047200D00206F
:402D400070B5084C154608460549E26889182A46FEF71FFDE0684019E06028B270BD0000A4110020200D00203EB50A226946FFF7E7FF044606480A2200686946FEF7FAFCFD
:402D8000002802D00020C0433EBD20463EBD0000240D0020002802D0044A914201D2FF20704703494A6108610020704779020000200D0020024800218160C1607047000062
:402DC000200D002070B5074C15460548A26880182A46FFF741FFA0684019A06028B270BDA4110020200D002010B503490A220968FFF7E8FF10BD0000240D002010B50F4ACD
:402E0000002313600E4A13600E4B18600E4801600E49012008600E490860000290600E490C4808600D4914300860FF381538506000F0BCF800F0CAF9002010BD540D00200A
:402E40003C0D0020680D00206C0D0020580D0020480D0020681500204C0D0020600D0020014610B50020002910D0094B1A689C685118A14209D25868196080188A0704D0B2
:402E80008A07920F891A091D196010BD002010BD3C0D0020F8B50024164E671E321F3D463168136806E01422624310328A58521C1BD0641C9C42F6D36A1C14D02C46142262
:402EC000544322460C3288500C214843FFF7C8FF3168002808510AD031680020103408517068401C70602846F8BD2546E4E73846F8BD00004C0D0020F3B50026F64381B0BD
:402F000000281BDB1E490968884217D80299002914D01B4F142204463F1D54432546396810354859401C09D0FEF708FA38682F1F4159C359994203DBFEF7FCF93046FEBDC7
:402F4000214608310091465801590C20704308180C220299FEF71DFC0948761C001D0068C159B14200D100260549009A091D865008684159491C4151FEF7DCF90020FEBD5C
:402F8000480D0020002803DB07490968884202D90020C043704704491422091D096850431030085870470000480D0020F0B500200D4A451E0346171F50600FE014260146BF
:402FC000714314680E1DA3510C461668083433511668083435511468401C635039688842ECD30020F0BD00004C0D0020F3B50026F64381B0002841DB2349096888423DD87F
:40300000029900293AD0204F142204463F1D54432546396810354859401C2FD0FEF78EF93868415900292BD0211D009146580C21005971430F46C1190C220298FEF7A9FB82
:4030400011480021001D0068761C00590C34C0190160416081600C48001D00680159B14200D100260849009A091D865008684159491E4151FEF75EF90020FEBD3046FEBD0B
:40308000FEF758F9FAE70000480D0020FEB504460D4600201E49089E0860471E009001900290002C11D0486885420ED2002A0CD0002E0AD0642E08D808460C3001681C2064
:4030C00068430C18207A002801D03846FEBD0120226020721846FFF7DDFE6060401C13D06681A6810A4827610C3067610179A94200D205710021684601810A462846029B8D
:4031000000F040F82846FEBD00202072DDE70000540D002038B50124009400F039F838BDFEB50027164EFF433D4600240EE01C20316860430818017A002906D04068FFF7C6
:4031400021FF002801D0254603E0641C3079A042EDDA681C12D01C2130684D434419FEF7EDF869466068FFF741FF0546FEF7E2F8002DD9D1216868468847D5E7FEBD0000F9
:40318000600D002038B50024009400F001F838BD1FB500220C49541E0A60002811DB496888420ED808491C220C31096850430818406801A9FFF7A0FE401C02D0002004B08B
:4031C00010BD2046FBE70000540D0020F0B50021114A4D1E174611710C3F0B46BD6016E008461C2460431668041D355114680646235014680836A3551468361DA3530446CD
:4032000016680A34335318301468491C255078688142E5D30020F0BD600D002038B500210091002811DB0F49097888420DDA0D4D04010C3529680859002807D0201D0818CE
:40324000694600F06FF9002801D0002038BDFEF775F828680F34015D491E0155FEF76AF8009838BD700D0020F7B582B0002502986E1E06602E48D21C024017462D4A2C46ED
:4032800010460C380178106805E02301C358002B0FD0641CE4B28C42F7D3711C28D03401211D40180191039900F02AF900281FD101E02646F1E71F48016820460C300F5206
:4032C0001C480399026820460E30115419480399026820460F3011540398784300F0A0F8144900280968085102D00024009011E001251AE00F48016801980818009900F024
:403300002CF9002801D0012502E00098C0190090641CE4B203988442ECD3002D05D10298066004480179491C0171284605B0F0BDFCFF00007C0D0020F8B50D4600216A464B
:403340008C461180002839DB23490978884235DA214B04010C3319680A59002A2ED020460C300B5A801C0E5C184670438018954224D3854222D2002006E007465F43BF1821
:40338000AF4206D0401CC0B2B042F6D36046002814D0114E271DC8190C366A46294600F006F900280AD168460088012808D030682946C01900F0D1F8002803D00120F8BD93
:4033C0000020F8BDFDF7BAFF30680F34015D491C0155FDF7AFFFF3E7700D0020F8B50F46002400F031F8002817D10C4900220B460C334A600EE021011D680E466A501D6816
:403400000C36AA53B61C1D680F31AA551D68641C6A54E4B2BC42EED31A71F8BD700D002000280BD0C01C074A81085068890053884118994203D8936851601818704700202B
:4034400070470000700D0020F8B5064600200F4D009029700C0121466846FEF747FC00280CD129460C3100980860301B001F84B221466846FEF73AFC002801D0FF20F8BDA2
:403480006C800098A8600020F8BD0000700D0020F8B5002827DB19490978884223DA174C05010C342168485900281CD028460C30085A009028460E300E5C401C0E542068AE
:4034C0002F1DC01900F064F800280CD12068002445590EE0094829460C300068C01900F03CF8002801D00120F8BD00982D18641CE4B2B442EED30020F8BD0000700D0020D2
:4035000030B50D4604000BD0A800FFF789FF6060002805D000202570C0436080002030BD012030BD70B50D46040005D0002D03D00220205E002801DA012070BDFDF7FEFEAC
:403540000221615E60688900405828606088401E6080FDF7EFFE002070BD70B50D46040007D0002D05D002212078615E401E814201DB012070BDFDF7E1FE6088401C00B2C1
:403580006080616880000D50FDF7D4FE002070BD10B5040009D0227800216068FEF702F90020C0436080002010BD012010BDF0B500231D46002802D00224045F0AE00120C6
:4035C000F0BD46689F00F6598E4201D1012503E05B1CDBB29C42F4DA15700020F0BD00000148007870470000840D00207CB505460024FEF70FF9A8796946087000A80622F7
:4036000029460130FEF7C5F80021684604F0FEFD0C2806D0072806D01F2806D0122806D006E0022404E0042402E0272400E0012420467CBD0148012141727047A4160020A6
:4036400010B500F05FF9FFF7FBF9FFF7FFF910BD70B504460025FEF7DDF8002C06D0A079012803D8214602F05BFD00E00125284670BD01460120002902D05020088000204E
:403680007047000001460120002905D003485422007850430880002070470000860D002010B502460D49FE204870032410460DF0BDFB002810D10DF061FB00280CD105F048
:4036C00081FB002808D100F0F9FA002804D105F043F8002800D10024204610BD840D002070B50025044600280ED0A07901280BD8FEF790F8A0790028204602D003F0A2F8FA
:4037000003E003F077F800E00125284670BD0000014610B50120002904D006220248FEF738F8002010BD0000900D002001460120002903D0087802490870002070470000BA
:40374000860D00200148007A70470000A416002038B504460120002C20D0617801291DD800290BD0FF25E535FEF754F80C4828180088C0B22070072803D00EE0FF25CD351F
:40378000F2E70020694608706846FFF773F969460878012801D108202070002038BD000000102E40014A002192681047840D002008B500226B461A7026280CD0094A342803
:4037C00052680BD0352805D1900703D50021352005F0D4FB08BD19462620F9E7D007F9D03420F5E7840D00200149087270470000A4160020F8B504460120002C26D0617825
:40380000012902D92278092A20D8002905D0FF25E5352078092803D004E0FF25CD35F8E708202070FDF7F6FF2078114F114E08280DD00020FFF75AF970780128207810D006
:403840000D4969180880FE2070700020F8BD0120FFF74CF90720B8810549203188800120F2E7B8810248217820308180EBE70000C0112E40840D002000102E4070B50E4693
:40388000050001D0002400E00C4C002C11D0E28A500609D5D107C90F022003F067F8E08A40218843E08204E0D107C90F012003F05DF83146284602F041FD70BD0416002094
:4038C000F8B50546002004460D4E009013E022466946284601F026F80098002801D00DF087FAA878214602F083FBA878214602F071FB641CE4B2308AA042E8D8F8BD0000E2
:40390000D016002038B51E4CFFF79AF8042813D0052811D0062812D003282AD007280AD100206946087002460120FEF7ABFFFFF787F80128FBD138BD00F09CFB38BD02F02A
:40394000ADFB00F097FB02F00DFC8007800F0228F4D10C4841880029F0D05B21095D0029ECD101210170A07D0140022002F0FEFF38BD02F097FB0120FFF792F838BD00003E
:4039800004160020AA0D0020F8B50646002403F05BF80546304603F071F803460A480021068A0DE001228A401046174628401F40002803D0002F01D1224394B2491CC9B24F
:4039C0008E42EFD82046F8BDD01600201CB50020694648706846FFF7BBFE01AA69460A20FEF750FF6946042008561CBD70B50D4601F07EFB04000BD02079002808D0FDF73A
:403A000009FFE178A0782A4602F01EFD002070BD022070BD0148007970470000D81500204030C07E002800D00120704700B500F001F800BD902148430749084A40186030CF
:403A4000417F491CC9B24177D289914201D300214177C8B270470000E4150020D016002013B501F045FB04000BD001F0FCFE002807D0214601AA0A310620FEF703FF002077
:403A80001CBD02201CBD000010B50C4601F030FB00280AD001F0E7FE002806D0224604490A20FEF7EFFE002010BD022010BD0000C5150020F3B581B0074601460026029865
:403AC00002F0BAFF0446002F01D0002500E0154D002D21D0284601F041FB032C04D13946029803F005F806463846029902F072FA032C06D0002C10D00121384601F034FC0F
:403B000003E03146384603F003FA284602F056F90221284602F06CF9FEBD3846029902F059FAFEBD0416002010B5044600F04CFA002804D103F0CEFE002801D00C2010BD25
:403B40002078611C02F086FDFF2801D01F2010BD02F0CCFDFF280AD02178621C02F0C8F9044821780068026B601C904710BD072010BD0000D00D002010B503F0ABFE0028DD
:403B800001D00C2010BD02F047FD03480068C06A8047002010BD0000D00D002070B50D46044610210DF064F81021601806460DF05FF8334610221946204603F0B9FE102197
:403BC00030460DF055F802202870204604F0FAFC70BD0000FEB504464078217802028006870FE0781143A5780E050002360D0543304601F07DFAEAB23B462146009601906E
:403C000000F0FAF90006000E14D10B48224600680199436928469847C0B2FF280AD10198EAB24030817EFF23491C81762146019800F0E1F8FEBD0000EC0D002000207047E8
:403C400010B5044603F046FE002801D00C2010BD2078611C02F0FEFCFF2808D002F032FC044821780068426B601C904710BD1F2010BD0000D00D002010B500F06BF904F0BC
:403C80006BFD002010BD10B5044600786178E2780843A17811430843217908436179084305D003F009FE002803D00C2010BD122010BD204602F0C6FD002010BD10B5FDF765
:403CC00055FB02F0E3FE044803F070FE02F004FC012000F003F810BDAC150020F1B586B003A8009005A8019028489F22017B114001736846FDF7A8FD002845D169460989BB
:403D0000C90705D0224806990068C2686846904769460989890706D5002835D11D480068816A0698884700282ED11B4E0025757075737571F575357675767575B570F570E3
:403D4000B5713746F5730120D03738731F20F880FF2130467972A0300176457600F008FB00242046069901F029FD002803D1641C2406240EF5D0FD720749BD72B573C03154
:403D80000D704D704D600D7207B0F0BD98150020EC0D0020D00D0020E415002070B505460E46084602F050FE0446304602F066FE0121A9400A46224001400A4301D0012098
:403DC00070BD002070BD10B50446084602F056FE0121A140014201D0012010BD002010BD10B5FEF72DFE032804D102F05BF90120FEF756FE10BDFEB51C4616460F46054641
:403E000001F0DCFFA878FFF711FE02460190334639460094284600F00DF8002808D1A8780199FFF72BFDFF2C02D138460CF0E0FFFEBD0000FFB585B005460E980C46FF288B
:403E400010D02B49C00009680A5840180179C0795278814201D9012601E09006860F6846038108E06078A1788006860FE0780002014368460181284601F026FD070007D062
:403E800021462846079A00F0E1FC384609B0F0BD304600F08FFD04AE0346039002AA29460096204600F0F9FB3C20405D002818D0284601F009FD012813D068460089009619
:403EC000C0B20190A878231DFF22079902F0EAF968460089039BC2B2A878079902F02EFDD3E7684600890021C0B20091E9E70000E80D0020F8B5002600253046FFF744FD04
:403F000007001DD090201149704340186030447F12E0601CFDF712FBCCB23846E040C007C00F07D02146304602F04CF821463046FFF7C0FD6D1CEDB20548018AA942E8D8DF
:403F4000761C3606360ED7D0F8BD0000E4150020D016002010B502F0BFFA0020FFF7BEFE0CF0DCFF002010BDF8B5002400F0F0F80123012800D10124104F00203E46203669
:403F80000425082203E0002801D0002100E031460979002907D001290BD002290BD0114681402143CCB2401C0006000EEBD07C70F8BD1C43F7E72C43F5E70000E415002066
:403FC00010B5FFF7D1FF10BD10B5044604F016FD002802D1601C00F001F810BD1CB500240094062269460194FDF7C4FB002800D1122420461CBD0000F8B5044600201E4695
:4040000017460D46002C12D0002D10D0022E0ED0032E0CD0002F0AD02179092907D0002905D013494A7F5A21095D8A4207D82089002104F0FCF928460CF0DAFEFF20E18FBB
:40404000012905D1002F03D0012E06D0002E04D0374301D10121E187F8BD0021E187069A2A70069A120A6A70AF70E970F8BD00009815002010B5FDF7B0F80446FEF7E0FCDD
:40408000012809D0FEF7DCFC022805D0FDF7BEF92046FDF7A6F8EEE72046FDF7A2F810BD10B50B4681791943817103D08078114602F012FC10BD10B582798A43827102D159
:4040C000807802F01DFC10BD30B50C4C0220A28A0B4B9978002901D0022906D11D785B78EB18282B01D9032002E0032900D101205105490DC0020143A18230BDC0112E4046
:40410000A00D002000B500F029F8002807D0012805D0032801D0042801D0002000BD012000BD014600B50020C90701D000F010F800BD014600B50020C90701D000F008F81C
:4041400000BD00000148006870470000980D002001480088000A704720102E400448008B410501D5042070474007800F7047000000102E400148406870470000980D0020DF
:404180007CB50446002568460570200610D5FFF7E5FF01280CD101A801F08AFF6846007900F058FB012001F071FE0220FFF708FF600712D50C48017901290ED105716846DB
:4041C00001F076FF6846007800F078FB0220FFF7F7FE00212620FFF7EBFA044800680169204688477CBD0000A40D0020D00D002010B501460A4A007800241070FFF7A8FF0E
:404200000128084603D002F089FA204610BD00F0E7F80400F9D1034801210170F5E70000A00D0020A416002070B50446FFF790FF002801D00C2070BDA27B01211F48002A78
:40424000827801D00A4301E05208520082706279012A14D0C17849084900C170184D2868016820468847207901280CD06188208803F0DEF82080207904280FD015E0C278BB
:404280000A43C270EAE72868C168E01D8847E01D02F0C4FA0B48008D208006E02868C168E01D8847E01D02F0B9FA074920798870204602F041FA002070BD0000E415002015
:4042C000D00D002098150020A00D002008B50178FFF73EFF814201D10C2008BD002914D0072069460870FFF70DFF012807D10121684600F0E5F8012801D0092008BDFFF75F
:40430000E3FE02F04DFA012011E0FFF7FBFE012806D1684601F0CCFE6846007800F0CEFA02F034FAFFF714FF0028FBD10220FFF747FE002008BD000010B501460A4A0078E4
:4043400000245070FFF704FF0128084603D002F0A3FA204610BD00F065F80400F9D1034801214170F5E70000A00D0020A416002038B568460CF0D2FC002801D01F2038BD06
:4043800001210098C90201804180002505714571857107214173857302F0CEF9009C202200212046FDF7FEF925702A460021601CFDF7F8F9204602F0B1F9204602F06CFACB
:4043C00000980CF015FD062200210448FDF7EAF902480C388560002038BD0000A40D0020F8B5044600250D4800950078012806D068460CF093FC002803D007250CE00C2558
:404400000AE0074E009830602278611C401CFDF7C0F93168207808702846F8BDA4160020980D0020F8B5044600250D4800954078012806D068460CF071FC002803D007258F
:404440000CE00C250AE0074E009870602278611C401CFDF79EF97168207808702846F8BDA4160020980D00200346084800B5834209D8184600F03CFE002804D000899842F4
:4044800001D1012000BD002000BD0000FF0E0000074A9179491C8906890E917138220A4092014907090E11430843024908407047E4150020FF0E0000C006C00E7047000082
:4044C000F8B507460E4600240D4803E0002C01D0002500E005462979002905D0641C2406240EF3D00020F8BD0021204601F066F92E712046FFF7CCFF28813C700120F8BDE9
:404500000416002010B503F047FA0222002100F003F801F08DFF10BD10B5094B40074907000F090F185A595A40185043C0086421FDF704F8002800D1012080B210BD000091
:4045400060330100F7B53D20405C88B015460C46002802D02878042802D200200BB0F0BD6946087200262046FFF75AFA012800D00126204603A938300191009023460327AD
:40458000A17E34333246206A03F02AFA02A8089900900B46019120463A4603A9243003F0A7F902466846007A2870204601F0F2F81046D3E7FFB587B00C460546107869460D
:4045C00008723D20005D1746002826D000262046FFF726FA012800D00126204603A93830019100902346A17E34333246206A03F0F7F902A80090291D019120462B1D03A96E
:4046000024300A9A03F074F902006846007A388002D1204601F0BEF810460BB0F0BDF0B505463C20405C89B016460C4600280CD0307869460873002806D000272046FFF77C
:40464000EFF9012803D003E01F2009B0F0BD012703200890204604A93830019100902346E17E34333A46E06903F0BAF96846007B03A928180290009120462B46019504A95E
:404680002430089A03F068F902466846007B3070204601F089F81046D7E7FFB505463C20405C89B016460C46002810D0084601F00BF901280BD0308869468883002809D013
:4046C00000272046FFF7ACF9012805D005E000200DB0F0BD0220FBE70127204603A93830019100902346E17E34333A46E06903F077F9291D2B1D07A8129A6D4607C5204634
:4047000003A924300C9A03F027F902466846808B3080204601F048F81046D9E770B50C460646FFF77DF9012824D06079227900020243E079A37900020343607A921F010210
:40474000207A0843E17A0D02A17A154C294335464035A24207D20A38221F904203D2FF20F43083420DD91E202873304600F0C8FB1E2070BD00222421304602F09FFD242021
:4047800070BDB07801F050FD012801D0002070BD28202873304600F0B3FB282070BD00007B0C0000002801D0002000E003484030C07F012800D0002070470000041600202F
:4047C0000146002049070ED50021084B03E0002901D0002200E01A461279022A04D0491C0906090EF3D0704701207047041600200146002049070ED50021084B03E00029B0
:4048000001D0002200E01A461279022A04D0491C0906090EF3D07047012070470416002010B5044680346068002803D00CF0F4FA0020606010BD403041707047403081704D
:4048400070474030017070470171704792001018C166704770B53C2501F030FA040004D020460021433001F093FCFF222946204600F0E8FB002C02D0A07801F0A1F970BD9E
:4048800010B5002801D0002000E00348002802D0008903F013FE10BD0416002010B5002801D0002000E00448002804D00179072901D100F047F810BD0416002010B501F0F3
:4048C000FDF9002802D0807801F07AF910BD00207047000070B50546008A00281ED01049F122097B1140C90618D5294640314A8A098A521C4A4392B2D10800D1012154080D
:4049000001E0621A94B2A042FBD9FEF769FE012804D1298AA878224601F04CFD70BD00009815002010B50023054C0B60248A944204D992001018C26E0A60C36610BD000006
:40494000D016002038B5044600200090A079002814D14020015D052901D00E290ED168460CF0ECF9002809D12046009902F084FC03481021428B2046FFF792FB38BD000028
:404980009815002010B50B4604460146184602F0E3F8002802D020460CF034FA10BD13B5044601AA11460620FDF76CFF6846818861811CBD002800D102207047704700006D
:4049C000F8B504462346401D543300909A1EA078911E01F089FB25464035A88A298A8000FCF7ACFD401E81B2688A884203D96982A07801F0F5FF698A8C2001512046002185
:404A0000433001F0C5FB27480088E88102F0C4FFE989891C8AB26179FFF77EFD01F008FD02F0BAFF2A8A6179FFF776FD074601F0F3FC688A002806D01B49088A03221202BB
:404A40001043088202E0002001F0BEFF1648803801886E8A002E0CD0304648431349FCF757FE0004000C01D0401C80B21049488002E00F4800214180288A704381B2A07808
:404A800001F018FFFF2228374932B9B21346204602F0D2FCE98AA07801F08CFEA07801F0B9FAF8BD80102E40E0112E4071020000AA0D00207FB504468034616805460E4651
:404AC000183108226846FCF764FE31462031082202A8FCF75EFE102168460CF0C9F86068102108300CF0C4F860682B46083024331022694602F01CFF7FBD10B504460821A6
:404B0000FFF7D9FA10212046FFF7D5FA207905281FD006281DD008281AD12189002003F045FC072020712046FEF77AFF014620464030012913D00E21017000210176204613
:404B400001F050F82046FFF76BFE2046FFF7C2FE10BD20890122002103F00CFCE1E70521EAE70000FFB581B01F4604460821FFF7A2FA10212046FFF79EFA2079082803D097
:404B8000092804D0042203E00422012501E009220025204600F05EFE264600204036307022712046FFF73CFE0398002D02D0012808D00BE001280AD120890022029903F00A
:404BC000D9FB04E02189029803F0F0FB012700203076012F04D0204601F004F805B0F0BD02983073204602F095FB054605480121428B2046FFF754FA002DEFD10920207137
:404C0000ECE700009815002070B50C460546FEF707FF012809D108212846FFF74CFA0023012221462846FFF79DFF70BD10B5044600F010FE2046FFF7F3FD002140342170E8
:404C400010BD70B505461A24FEF7EAFE012809D108212846FFF72FFA0023012221462846FFF780FF70BD0000F8B50446002000900E4668460CF062F8002801D00D20F8BD8C
:404C80008420005908212030009D00F02CFA20460421383000F027FA002E02D1204600F03BFE2946204602F072FA0E480821428B2046FFF7F5F9204601F005F8254640353A
:404CC000002808D0204600F023F8002801D0092028700020F8BD08202870204601F06EF8F7E7000098150020014610B540310A460978082906D0092907D00A2901D100F039
:404D000091F810BD0B20107010BD00F001F810BD70B50446007925464035052805D0062803D008280FD00C2070BD03220621204602F0C4FA0D480821428B2046FFF7B0F90A
:404D40001120287010E006202873204602F0E2FA0646AA8A0A20424301212046FFF7A0F9002E01D109202071002070BD9815002038B504460020009068460BF0DFFF0028D5
:404D800001D00D2038BD2046009D00F0C3F908202071204600F0C0FD2946204602F02EFA00213D2001550F2040210855204601F005F8002038BD00B5024600F04BFD102106
:404DC0004032117000BD10B50446FEF729FE012809D04020005D112805D100231A4606212046FFF7BFFE10BD10B5FFF786FE10BD38B504460021684600910BF09FFF002816
:404E00000CD12046009902F07AFA05480821428B2046FFF745F90D204034207038BD00009815002038B504460021684600910BF085FF002801D00D2038BD2046009902F03E
:404E400053FA05480821428B2046FFF729F90C2040342070002038BD9815002000787047F8B5002569460D70002801D0002400E01F4C002C18D0204600F0F5FC002813D017
:404E8000207903280BD005280CD026464036B18AA07801F019FDB078012806D01DE0042020711DE006202071F8BD0021204601F070FE274680373868002802D00BF0ACFF82
:404EC0003D600020B0702079072802D12046FFF701FD0221204600F08BFF20790428E3D1207A694608703420FEF762FCF8BD00000416002010B54C22115400F052F810BD6E
:404F000010B50446FF21FFF7D6F809202071A07801F000FD10BD000038B5FF216A461180002801D0002400E00B4C002C12D011460620FDF7A7FC684601882046FFF72FFD6E
:404F4000204600F0C7FC002804D104480068C1692046884738BD000004160020EC0D002010B504468079002809D022214C200155FF212046FFF79FF8204600F012F810BD72
:404F800010B5037902464032002B03D01173092B02D003E0002100E02221117300F001F810BDFEB504460089002700902781207926464036002817D0012815D002280AD18B
:404FC00012E002AA01A9204601F0B4FD002807D101980BF017FF204601F0D4FD0028F0D02046FEF76DFCB776254680352868002802D00BF011FF2F606868002802D00BF0AD
:405000000BFF6F60317B002919D0009800F064F8A078002101F01AF82046FFF773FAA07801F0ECF8A07800F0CBFDFF212046FFF742F80B20FEF7C4FF00F0A8FCFEBD1F210B
:405040003173E2E7F8B517460E46054602F0A0FC04003CD020460C3001F08AF82046062200211830FCF79EFB2046062200211230FCF798FB1648224600683946436A2846A5
:405080009847074626702846FEF7CAFC012148406070002D10D02889608028464030C1782171002E0FD169796171018AE180418A2181808A608106E00648008BC005C00FEB
:4050C0002071002060803946204603F0F2F8F8BDD00D002000102E400A4610B50146002003F004FA10BD10B50BF09EFB10BD000000B50146FFF7E0F9002801D0002000E009
:405100000348002802D002898A4200D0002000BD0416002038B5044680346068002806D168460BF01BFE002801D100986060606838BD000010B5014600F0C6FB0128887883
:4051400002D0FEF777FC10BD90214843024940186030007F10BD0000E415002070B5054604464035A87F012811D1A1789020084A484380186030067F3046FEF70FFE002800
:4051800005D10220A877A078314601F0E1F870BDE415002010B50C4CA07A002813D0FEF7A9FE0A48027F417F408B00F0F7FB012809D10020A07200F091FF05498989090BF2
:4051C00001D000F03BFA10BDB4160020E4150020A0102E4070477047490510B5490F0B00FCF7E6FC060704080C0C0F073E21FFF781FE10BD0821FFF7C3FE10BDFFF7D1FEB8
:4052000010BDFFF7ADFE10BDF8B507460025002D01D0002600E0204E00F02EFF3046403044890021418100F031FF304600F01BFB01282BD1A00702D52846FFF711FEE00657
:4052400002D52846FFF768FEA00601D5FEF752FE600601D500F054FB200602D5284600F01DF8600702D5284600F046FA380402D52846FFF713FB780402D52846FFF700FBCE
:40528000E00703D021463046FFF7A6FF6D1C2D062D0EBCD0F8BD000004160020F8B5002801D0002400E0284C002C4BD025464035A878012846D1FF278820493700593E467A
:4052C000002805D02149097B890601D5878AC68A2046FEF7A5FB012834D002F05DFB2A8A6179FFF719F9009001F096F800983346283081B23A46204602F09EF8E98AA07851
:4053000001F058FA12480188688A124E002810D048431149FCF7FCF90004000C01D0401C80B27080A07DC107C90F002001F01EFB01E000207080288A698A484381B2A0786E
:4053400001F0B8FAF8BD0000041600209815002060112E40AA0D0020710200000149096809680847EC0D002070B50D460026194A0146002801D0002401E014462034002CF1
:4053800026D0204600F0A0FA01280AD19020484380186030007FFEF701FD002801D101F039FF0D48006881692046884700280CD020464030817EA94202D3491B817600E05B
:4053C00086762089294603F032F8204600F0F6FC70BD0000E4150020EC0D002070B503460088FFF785FE040013D000F03CFA00280FD02079092819D0254699784035297312
:40540000204601F087FF0646A878012803D0AA8A02E0022070BDEA880A20424301212046FEF73EFE002E01D109202071002070BD0EB5002217216B460292198100905A817A
:405440000120029B00990BF087FD0EBDF8B518480024807A002822D1164E0025B089000B22E0204600F0A4FE1249A039401807882A462146384600F091FA012810D00E4834
:405480000122478305770A4944778A72002D01D0002000E02030002801D000F08FFCF8BDB089000B641CE4B20028DAD1F8BD0000B4160020A0102E40E415002010B50088B2
:4054C000FFF716FE002809D0014640310C460978082905D00B2903D00C2010BD022010BDFFF716FC002801D009202070002010BD70B503460088FFF7FBFD040008D025464F
:4055000040352878082805D00B2803D00C2070BD022070BD8420005910220830991CFCF738F92046FFF7C6FA2878082804D02046FFF778FC002801D00A202870204600F0C2
:405540003DFC002070BD000010B50C46002121700088FFF7CDFD03000BD000F084F9002807D00948F121007B0840C00603D4112010BD022010BD022020701A8A1889002182
:4055800002F0D0FF002010BD98150020F8B50F46002100910088FFF7ABFD040012D000F062F900280ED0E079410641D4617E02264A07002A08DB8907402500291ADA2843C8
:4055C000E07135E00220F8BD02F0E2F90021017021894180A1898180217E4170E189C1803E7005460178134802F06AFC284602F03DFF1DE0204600F06DF9012806D0684657
:405600000BF09CFB002803D00720F8BD2A20F8BDE07900992843E071204601F0A5FE607E0421304360760448428B2046FEF738FD0020F8BD1D040000981500203EB500228D
:405640000F236C460292238100910190628169460EC900200BF080FC3EBD0000F8B50F46054600F02BFB04002AD000F007F900282AD003202071254600264035EE76E6700A
:405680002046FFF79DF901F081F80920FEF798FCA07800F0A1FD0121204600F0A9FB2E706E70AE703A4600212046FFF7CBFC0F49887B401C8873A078FFF750FE022012E09A
:4056C000284601F027F9F8BD002001F023F90848008B4007800F012802D1064801F09EF801F05EF80120FEF76BFCF8BDE415002000102E40D80D002010B5002801D00020D4
:4057000000E0094800280DD0014640310A464978022901D100215170807DC107C90F002001F024F910BD00000416002070B503460D460088FFF7DCFC04000BD000F093F848
:40574000002807D01248F121007B0840C00603D4112070BD022070BD20464030418A008A491C41430804C10C5888884201D2122070BD20822079072802D12046FFF7AAF8AD
:40578000022028702089002102F0F4FE002070BD98150020016A491C016204D1817E491C4906490E81767047C169491CC16104D1C17E491C4906490EC1767047F0B50746F7
:4057C00087B003A8009005A800260D460190002F01D0002400E01B4C002C05D06846FCF733F8002803D00BE0022007B0F0BD68460089C00704D1902200212046FBF7D2FF0D
:40580000114829460068826820469047050016D1A77066762746267140373E70204600F019F8204601F0AAF9084820820848BE77007BF121084000D001202075E682E8B2D4
:40584000D3E7000004160020EC0D0020B80B000098150020002101628176C161C17620300177417770470079002805D0012803D0022801D001207047002070470F49008983
:4058800008820E49603108880D4A801F904210D28888121F0A3890420BD20889FF21F431884206D8074800890006C00E401F0C2801D300207047012070470000A0102E40AC
:4058C0007B0C0000E0112E404030807F002800D00120704740300078002807D0012805D0052803D00E2801D0012070470020704710B5807801F0C2F8002800D0012010BD9A
:4059000010B500F0EBFB03498989090B01D0FFF795FE10BDA0102E4070B5054604464035A87F002825D1FF206075A0789021154A484380186030417F9023491CC9B24177C7
:40594000A0785843104B8018DB896030994201D300214177A0789021484380186030467F0677A1783046FEF719FA002802D00120A87770BD0220A877A078314600F0E8FCA5
:4059800070BD0000E4150020D01600200020401C0006000EFBD0002070470000F0B516468207920F87B0000A02926A469080002E01D0002400E07F4C002C21D0084600F080
:4059C000F7FB074668468088002810D00298032817D0002000906846808821890491214620310391497F0546012964D067E07248381801882046FEF7D2FF304600F016FB1F
:405A0000D6E00020029002A80BF078F9002807D03D20005D0128F3D12046FFF7BBFEC7E00298009068468388202B14D31F2300213846009AFCF738FE684680881F3885B289
:405A4000012305AA00213846FCF72EFE6D1E2D042D0CF5D104E000213846009AFCF724FE5548381801882046FEF799FF304600F0DDFA01AA21460098FEF764FD0028009842
:405A800005D00BF0ABF93D204C2108555EE0C677009869460078898801F0BEFC00280099204602D001F0DCF982E001F0EEFA00980BF094F97CE0042820D3281F80B23F49BF
:405AC000097B890605D5882109594989814202D314E01B2812D9012305AA00213846FCF7E3FD6D1E2D042D0CF5D10398407F012800D07CE72046FFF74DFE78E768460BF0BD
:405B0000EDF8002802D0002007B0F0BD6846009D83882A1D00213846FCF7C6FD2648381801882046FEF73BFF304600F07FFA2046FFF799FE002805D026464036307E0028AD
:405B40001DD107E028460BF03FF931E02046FFF7D7F92DE00298012809D0022807D00398407F0128EED12046FFF714FEEAE7034601AA21462846FEF71DFD002805D0284604
:405B80000BF022F93D203073E0E70298FEF716FF01460498287004980901000A0843687068468088A870000AE8702846FFF740FC0120A9E70416002000102E409815002010
:405BC00010B5074A917B002901D0491E91730021FFF7F4FD002801D0002010BD012010BDE4150020F8B5074606464037B87F00282DD0B078902100904843234945186035BE
:405C0000287F0099FEF7DFF801281ED0287F401CC4B21E48C089A04200D800240020B877FF276F772F77A87702460146009800F0FFFC717DFF2903D0304600F060FF77756F
:405C400001F0E8FA0025114F19E00320B877F8BD00200090224669463046FEF763FE0099002904D0FF231A463046FEF7C4F8641CF889E4B2A04200D800246D1CEDB2F889DC
:405C8000A842E5D8F8BD0000E4150020D016002010B502460021084B03E0002901D0002000E018460479944204D0491C0906090EF3D0002010BD00000416002000B501203B
:405CC000FFF7E6FF00BD10B5044601F061FE2189018080346168416061682831816002F07FFB10BDF7B50646087982B00C46092807D0A078F0770846FFF7E6FD012806D07E
:405D000010E030460BF07EF8022005B0F0BDA1789020294A484380186030007FFEF73EF8012810D0A078FEF73DFD01280BD037780121304601F016FA25462035062F38D0D6
:405D40000B2F0FD107E06846027C21463046FEF719FE0D20D9E72046FDF762FE012801D1002028772046FFF7E5F9054604AA21463046FEF754FC01205F2108556946097C25
:405D8000002001910090A07833463A46294600F089FA69460A7CA0780323294600F0CEFDA0782946FDF76AFD30460BF02BF80020ABE70120D5E70000E415002010B50246E6
:405DC0004032937F0021002B03D1927E002A00D00121064A927A002A00D000210279092A00D10121807800F0E1FD10BDB416002070B50C460546FDF713FE00280BD1012C46
:405E000006D92879092806D02846FFF771FD0446002C02D004E0012402E0A87DC007FAD1A87DC107C90F204600F0A0FD70BD0000012807D0082804D10448028203480830E2
:405E40000180704701488038FAE70000A0102E40014908817047000000102E4010B50446FF20F130012C01D1FF20D530002200F0CFFD044A108A044980B2A043088010822E
:405E800010BD000000102E40AE0D0020034B198A034A89B2814311801982704700102E40AE0D002010B50446012802D0082C07D102E0FF20D53001E0FF20F13000F0A0FD79
:405EC0000348018A034A89B221431180018210BD00102E40AE0D0020034B198A034A89B2014311801982704700102E40AE0D0020F8B505460120A84086B214460F460122A2
:405F000031467C2000F084FD3A463146782000F07FFD6078267800020643E078A2780002024360792379000203430C2045430D2080010549281844182680001D441822809E
:405F4000001D40180380F8BD00102E40CB065B0E0343480901021943D00108430121C902084301490881704780142E404278037812021343084A1382C37880781B021843B5
:405F8000908248780B78000203431383C8788978000201439183704700142E40024A1080000C90801181704700142E40044A002180180288491C89B21029FAD37047000029
:405FC00000102E40024A10820148803081817047A0102E4010B5054A1082084600F03CFD024A0021A03A8018018010BDA0102E4010B50B46044600F005F819462046FFF705
:40600000E1FF10BD024A10820148803001817047A0102E4010B504490882FF20002220211D3000F0F5FC10BDA0102E40000202494D3008807047000000102E400249888A6A
:406040000422904388827047C0112E4010B5084B074C0202A03B0029208202D075321A8010BD04490020088088807632F7E70000A0102E40201A2E4000B503490888488090
:40608000FFF704FF00BD0000AE0D002000B502484088FFF721FF00BDAE0D002010B5FCF7B9FC10BD014952200880704700102E4000210170704700000748808806492039DF
:4060C000098B884201D8081A03E00022D243101A401880B27047000020112E400148008AC0B27047A0102E4070B5084C049D2082074804890548603006880E80018911805D
:40610000808818806007400F287070BDA0102E40E0112E400148008970470000C0102E4000280FD00D4A108B0870000A4870908B8870000AC8700948203000880871000ACC
:4061400048717047064A10880870000A487090888870000AC8701089F0E7000040102E40C0112E400148008A70470000001A2E40064B1A8999891B8A0270120A42708170D0
:40618000090AC1700371190A4171704760102E40012904D00549098BC90B017070470349403109898907C90FF7E7000000102E400148408970470000D0160020044A10821F
:4061C0000448028980894843101880B270470000A0102E40D01600209021074B414300B5C918FF2260314A770A7700228A77114600F01EFA00BD0000E41500209022504351
:40620000074A10B58018FF21603041770177002181770448C18EFF201D3000F0F1FB10BDE41500209815002000B5044A1082034880308088022200F003F800BDA0102E409F
:4062400010B50023884201D8081A03E00024E443201A4018044980B2884201D8824200D90123184610BD0000FF7F000070B55478157824022543D478882326029478344377
:406280005679127936023243002900D09823044908820348A038181805808480028170BDA0102E40FFB581B014460D4607460A9E0B9BFFF783FF002E0AD0009333460021C8
:4062C000049AFCF781FA05484019C45505B0F0BD0021049AFCF75EFAF5E70000B20D002070B502460448054D808808242C800B460021FCF74FFA70BDD0160020A0142E40BE
:4063000010B5212402466401044953200880102300212046FCF73EFA10BD000000102E40417802780902044B0A431A83C1788078090208439883704760142E40034A10829D
:40634000802001430148803001817047A0102E40054A1082044A6032908B0009000108439115084390837047A0102E4030B500210F4B0A46012809D0032802D005280AD128
:4063800007E04021198102210A2204E004210C2201E004210D221882054C20342088C0B205460D42FAD022800021198230BD000080142E4010B50446074804820748018082
:4063C0008280032189030820FFF76CFD200202497530A039088010BDA0102E40201A2E40054A1082044A60321183000202494B30A039088070470000A0102E40054A491E55
:406400001082044A60321183000202494C30A03908807047A0102E400349884200D908460249088070470000FF0F000060112E400349884200D9084602498880704700005C
:40644000FF0F000060112E408823002900D09823084908820748A038191808881070000A507088889070000AD07008891071000A50717047A0102E4010B514460246064802
:406480000B46C0880021FCF76BF9012C02D103495420088010BD0000D016002000102E40064A11880170090A417091888170090AC1700349542008807047000080142E40C5
:4064C00000102E400121814010B589B200227C2000F09EFA10BD0000FEB5FF210120FFF7BDFCFF210820FFF7B9FC3020FFF7CEFC4148802101804148414D00784007400FB2
:40650000022873D001286FD100202880002211460320FCF7B7F93B4E3B49308E88823A4F002420373448A0300482B08F38822046FFF764FE641C2406240EF3D0314C324886
:40654000403421882030018320462C3800F052F9B16970690191009069464879C021084369464871684600F06DF900F055F8224FE088A03738832089B8831F496089C0313A
:4065800088802148F18E203001802048002404823920FFF7A1FC184E532030801C490720088354203080E020FFF700FDE820FFF7FDFCF020FFF7FAFC0020FDF7A3FF134861
:4065C0008482282101838015B8810F48403084815B203080094800784007400F022807D0012801D10B482880FEBDFFE703208CE70848C01CF7E7000000102E40D0160020E8
:40660000001F2E4098150020C0112E40001A2E4080142E40E0230000044800218183018302497420603908807047000060102E40074B1882064B6033988B00090001084362
:4066400099158843002A01D11021484098837047A0102E40F3B50D2284B0920100924A780B78120213430393CA788B78120213434A790979FF20120211431A4A8C46918BBA
:406680009E460291118B01911649742260390A80154900220F7921E00121124B9140009C603BE3181D8889B21C881B88039E6E407546654064462E435C4026430CD1029B22
:4066C000194209D00199D140CB070499DB0F8B4202D1104606B0F0BD521CD2B29742DBD8F8E7000060102E40D815002030B50949FF208C8B084A00210125137905E02A46DA
:406700008A40224204D0491CC9B28B42F7D830BD084630BD60102E40D815002010B50446E020FFF743FC20782246401CC3B20021E020FBF7D5FF10BD42790021012A02D91D
:4067400001214171090342790A430179042914D049001143827B032A01D8D2001143427B52010A43817909021143012252031143054A11830088908370471146012292021B
:4067800011430222E5E7000000102E4000B50120FFF77CFB01494120088000BD00102E4000B50120FFF798FB01494020088000BD00102E40024A108201486030818170472A
:4067C000A0102E4010B5044C208204488180028183815143018210BDA0102E40A0132E40034B1882024820388180028070470000A0102E404178027809020A4306490A8087
:40680000C2788378120213438B804279007912021043088170470000C0112E404178027809020A4306490A81C2788378120213438B814279007912021043088270470000A8
:4068400060102E40417802780902084B0A431A83C178827809020A439A8341790079090208430249203108807047000040102E404178027809020A4306498A80C2788378DC
:40688000120213430B814279007912021043888170470000001F2E4010B50446E820FFF785FB20782246401CC3B20021E820FBF717FF10BD024A10820248818370470000BB
:4068C000A0102E40001A2E40024A10820148603081807047A0102E4010B5044688000521FAF72CFE04490C8204498880200202497230A039088010BDA0102E40001A2E407A
:4069000003490882000202497330A03908807047A0102E4003490882000202497030A03908807047A0102E4003490882000202497130A03908807047A0102E40F8B5054670
:406940001C4617460E46084600F086F8054AB90021431582034AA03A80180180024880194455F8BDA0102E40B70D002030B50E4C238A01251A46012804D0022804D000293C
:406980000BD00CE02A430AE0002908D12A4322825008400020821A4601E05A0852009A4200D0228230BD0000001A2E40054A1082044A6032908B40239843890101439183B6
:4069C00070470000A0102E40044A118A0223002801D0194300E0994311827047001A2E4000B5064A1082054860300181002901D0012000E00020FFF7E7FF00BDA0102E4009
:406A0000024A801802880A430280704700102E4070B5084BC5182C880023080003D104E040085B1C9BB2C607FAD08C439A4022432A8070BD00102E40024A1018405C80075B
:406A4000800F7047B70D0020024908820148803080897047A0102E408000FF3041307047044B02461B8AFF208B4202D902484018805C7047D0160020B20D00200249088277
:406A80000148803000897047A0102E40174902460B680020002B08D10A605207520F012A04D0022A10D0086012207047112292018A80CA80032252020A810122D2024A81E0
:406AC00040228A8105220DE0092252028A80CA80012252030A810322D2024A81012252028A810422CA810A8270470000D01600200A4600B501461046FFF7B2FF00BD38B54C
:406B00000C4605460021684600910AF017F9002804D1009928464C7000F018FC38BD10B5044680780021FFF745FE01212046FFF75FF910BD436E002B0CD00B600146603196
:406B40008B781370826E4266CA788A700021816608467047FF20704710B50346446E6033002C04D0846E002C04D0FF2010BD41669A7001E08166DA70002010BD002141662F
:406B800081667047406E002801D000207047FF20704770B50446C0790D46810610D5DF210840E07100F0F4FE0570218941804034218A8180618AC180A18A018101F04CFBF0
:406BC00070BD000010B50446FEF77EFE01280AD1A1789020054A484380186030007FFDF7DDF8012801D000F015FB10BDE4150020F8B50E460446FCF713FF01282BD02079E4
:406C0000042801D0072825D1F079B77900020743A0783946FFF708FB25464035012820D03A46711C204600F09EFA02212046FDF702FEA07DC107C90F0220FFF797FE688AF0
:406C4000002807D0E87E002804D1032109020820FFF728F9F8BD01222421204600F02EFBF8BD282028732046FEF74AF9F8BD70B50D460646FDF752FD002852D120213046B4
:406C8000FDF719FA3446687840346073E87820220002E081A9780843E0816879010228790843218A814203D0F1791143F1712082E8790102A8790843618A814203D0F179CC
:406CC0001143F1716082687A0102287A0843A18AE180814203D0F1791143F171A082A08A218A8000FAF72AFC401E618A80B2814200D9608201213046FDF7A0FDE87AA97AB3
:406D0000000201430022304600F048FB608A002807D0E07E002804D1032109020820FFF7C1F870BDF8B50C4605460027FCF778FE012847D0284E307BC00709D02846403012
:406D400000900078002806D0102803D01F212CE01A212AE001272846FEF7DCF9002823D02E4680360822611C7068FAF712FD7068617A20300172A17A417270682146183082
:406D800008220B31FAF705FD21462846042213313430FAF7FEFC39462846FDF765FF002810D1002F0FD012E007210322284600F085FA728B08212846FDF772F911212846E1
:406DC000FDF73FFDF8BD06212846FDF73DFD009801210176F8BD00009815002010B5FDF783FF10BDF8B504460020009020790D46032803D0042801D0072825D12046FCF724
:406E00000FFE012821D0684609F098FF00281BD111486978007B009E0840F12108402075FAF7A4FAC0B2022803D0207D4006400E2075607E0821084360763146204600F096
:406E4000C1F92046FDF743FDF8BD08222421204600F034FAF8BD00009815002070470000F3B581B004460298FDF7F8FF06462046FEF7F9FC00282FD0162E04D32046029956
:406E800000F003F928E025464035287800270300FAF78EFE0E1B1B1B08081B1B1B0808080808081B0298194A01780020135C8B4201D1012702E0401C0728F7D3E87E00281B
:406EC00001D1072901D0002F0AD01049B00008310A58204602999047029809F07FFFFEBDA078FFF717FD002301223D212046FDF739FE3D2028732046FFF711FE029809F021
:406F00006DFF2046FEF74DF8FEBD00007033010070B50D460021002801D0002400E00C4C002C14D020464030C177807F032802D12046FEF757FE2046FFF744FE162D04D276
:406F40000449A800095820468847FEF71FFD70BD04160020FC33010010B5014640310C4609780E2903D1FDF703FF0120207610BD10B54021095C0F2901D1FDF71CFF10BD98
:406F80004021095C0F2902D1002120304177704738B5044600220E4800920D46007BF1210840C0060ED52046FEF794FC012809D0684609F0C3FE002803D12046009900F0CE
:406FC00067F938BD2946204600F05FF838BD00009815002010B51021FDF76DF810BD10B54022125C002A02D04978FDF70DFE10BD10B5FDF7E8FE10BD0121203041777047D7
:4070000010B54021095C0C2901D1FDF7F1FE10BD10B54021095C0D2901D1FDF7E5FE10BD70B5044600790D46052803D0062801D0082802D12046FDF7F9FD68784C210855A0
:4070400009212046FDF700FC2046FFF768FD2046FCF7E6FC0128A07805D0FFF75BFC2046FEF7ACFE70BDFFF75FFCF8E710B50446FF21FDF720F816214C200155A078FFF78D
:4070800049FC2046FEF79AFE10BD70B50C460546FEF71AFC002802D02078687570BD21782846FFF72CFD70BD70B5054648780C46032802D12846FDF7C4FD6078122803D186
:4070C00010212846FCF7F7FF03482146006842682846904770BD0000EC0D0020704738B5044600200D46009004212046FCF7E3FF68782076E8780002A081A9780843A081E2
:4071000068790002E08129790843E081607E04210843607680070CD4684609F00FFE00281ED12046009900F01FF9607E022108436076E079410613D5BF210840E07100F04D
:4071400027FC00210090017021894180A1898180217E4170E189C18001F088F9FEF716FC38BD7047704770B50446C07815460A4600280AD00020E070C1B2A078FFF776F8AA
:40718000A0782946FFF72CF970BD0120F3E770B50546042008700C468420415908222031601CFAF7F6FA29462046042238310930FAF7EFFA0D2229462046FEF793FD002071
:4071C00070BD000070B5054609200C46087008220021601CFAF7E6FA287D607006480922407BA0700020E070207129462046FEF779FD002070BD0000981500200B4610B53D
:4072000001460B20187001221846FEF76BFD002010BD0000FEB50024164F03E0002C01D0002500E03D462846FFF7ACFC00281BD15F20405D002817D16A4601A92846FFF7DB
